:020000041000EA
:1000000000B5324B212058609868022188439860DF
:10001000D860186158612E4B002199600221596106
:100020000121F02299502B49196001219960352056
:1000300000F044F80222904214D00621196600F024
:1000400034F8196E01211966002018661A6600F04E
:100050002CF8196E196E196E052000F02FF8012189
:100060000842F9D1002199601B49196000215960AB
:100070001A491B48016001219960EB211966A021F2
:10008000196600F012F800219960164914480160C1
:100090000121996001BC002800D000471248134993
:1000A000086003C880F30888084703B5996A0420EC
:1000B0000142FBD001200142F8D103BD02B5186610
:1000C0001866FFF7F2FF186E186E02BD00000240BE
:1000D000000000180000070000035F00212200005C
:1000E000F4000018222000A00001001008ED00E03C
:1000F00000000000000000000000000074B24E7A12
:1001000000200420F7010010C3010010C5010010F9
:10011000C1010010C1010010C1010010C101001097
:10012000C1010010C1010010C1010010C701001081
:10013000C1010010C1010010C9010010CB01001065
:10014000CD010010CD010010CD010010CD01001037
:10015000CD010010CD010010CD010010CD01001027
:10016000CD010010CD010010CD010010CD01001017
:10017000CD010010CD010010CD010010CD01001007
:10018000CD010010CD010010CD010010CD010010F7
:10019000CD010010CD010010CD010010CD010010E7
:1001A000CD010010CD010010CD010010CD010010D7
:1001B000CD010010CD010010CD010010CD010010C7
:1001C00000BE00BE00BE00BE00BE00BEEFF3058054
:1001D000103800BEF2EB8871542400107024001017
:1001E0003402001090A31AE700201F49086006C8D7
:1001F00081F3088810471D48006800282FD10DA4FE
:100200000ECC002902D000F012F8F9E71849194A7B
:10021000002000E001C19142FCD1174988471749ED
:1002200088471749884700BEFDE701C901C29A42C5
:10023000FBD3704770240010C0000020D0030020C2
:1002400080270010000004200000042080270010F8
:10025000001004200010042000000000704709482E
:1002600001F038FD0047000008ED00E0000000D07C
:10027000D0030020A00800204D1B001059030010DF
:10028000411C00105756000006005250ABB360539B
:10029000FC23001006005250861C03020C240010A0
:1002A000060052505422A29D2024001005005250F6
:1002B000DE65F46880270010F8B5C0460648074997
:1002C000091A8B10C90FC91810B5491003D0044B77
:1002D000002B00D0984710BDD0030020D003002091
:1002E00000000000054B10B5002B03D00449054861
:1002F00000E000BFFFF7E2FF10BDC04600000000B5
:100300005408002058230010F0B5CE46474680B56B
:10031000160083B0D02480221F006B462406D20131
:10032000D9719046A26180221202914607331900CA
:10033000A2610122050001F0FFFF4B463A00636114
:100340003100280001F0F8FF4346636103B0C0BCF0
:10035000B946B046F0BDC046F0B50E209FB000F0E3
:1003600063F90F2000F060F9052000F05DF9D02658
:100370008022802320279C4C3606D2011B02726209
:100380009A4973622000776272617361776101F04C
:1003900013FF0723226801215A40C8331340944AAF
:1003A0000220136000F028F90121032000F024F955
:1003B000642000F073FE6420B76100F06FFE6420DB
:1003C000776100F06BFE0023002201212000FFF77F
:1003D0009BFF782000F062FE6A463621854D2000A2
:1003E0002B889386AB7852181370B93103230DAA6A
:1003F000FFF78AFF6A463A21AB8820001387AB7962
:1004000052181370953103230EAAFFF77DFFAB68D6
:10041000ED212000129312AA0423FFF775FF6A460C
:100420003E21AB8920009387AB7B52181370AA3111
:1004300003230FAAFFF768FF2B6914AA14932B7DDF
:10044000CB21137120000523FFF75EFF6B466A4640
:100450001F70F72101232000FFF756FF00230AAA8F
:100460001380EA2120000233FFF74EFF232301AA65
:100470001370C0212000223BFFF746FF102302AA81
:100480001370C12120000F3BFFF73EFF2B8B0BAAFF
:100490001380C52102232000FFF736FF86230027A3
:1004A00003AA1370C7212000853BFFF72DFF04AA84
:1004B0000123362120001770FFF726FF05AA01232C
:1004C000372120001770FFF71FFF662306AA13705D
:1004D0003A212000653BFFF717FFC02307AA1370DE
:1004E000B0212000BF3BFFF70FFFF8230CAA5B01F0
:1004F0001380B12102232000FFF706FFEB69B5212D
:100500002000139313AA0423FFF7FEFE4020694640
:100510002A8C2B0009180A8042216A4620339B78D6
:10052000521813702000032310AA7431FFF7ECFE59
:1005300008AA0123F22120001770FFF7E5FE01232E
:1005400009AA200026211370FFF7DEFE16AB9C4699
:100550002B006146243385CB85C11888624608800C
:100560009B7820008B700F23E021FFF7CDFE1AABA4
:100570009C462B006146343385CB85C11888624682
:1005800008809B7820008B700F23E121FFF7BCFED1
:1005900044216A4644352B88521813806A46AB784A
:1005A0000231521813702000032311AAB031FFF753
:1005B000ABFE0023002211212000FFF7A5FE7820CA
:1005C00000F06CFD0023002229212000FFF79CFE93
:1005D000782000F063FD192000F026F880239B04AA
:1005E00073627361C046FDE700C0034040420F00E4
:1005F00000D0034058230010094A10B59446402407
:10060000830063441A68C000624080341440802232
:10061000520113431C60034B9C466044416010BD73
:1006200004C00140004001400123D0228340120653
:1006300093629361094A40219446830063441A6897
:10064000C0004A408031114080225201134319609A
:10065000034B9C46052360444360704704C001403F
:1006600000400140024B18688007C00F7047C04629
:1006700000C0064070B5EFF3108C72B60D4D2B68BC
:10068000002BFCD0BFF35F8F0724CB08C618C05CDB
:1006900001230C40A3401C000440034207D118432F
:1006A0003070BFF35F8F2C608CF3108870BD10002A
:1006B00001F0CAFA2C0100D00021044B044ABFF318
:1006C0005F8F02C39342FAD17047C046000100D049
:1006D000800100D0044A1078431CDBB2172B00D9EC
:1006E000102313707047C046180300200123834075
:1006F000002904D0034A1360034A13607047034A79
:100700001360FBE780E200E000E100E080E100E050
:10071000024B10309B688000C058704700ED00E02D
:1007200070B50D00EFF3108672B60F4A1368002BF8
:10073000FCD0BFF35F8F0D4B10309B6884001B59BA
:100740000B4A934203D09D4201D001F095FA074B2A
:100750009B681D51BFF35F8FBFF35F8F0022024B79
:100760001A6086F3108870BD240100D000ED00E00F
:10077000CD010010F0B5DE4657464E464546E0B581
:100780000C0083B0EFF3108872B65D4A1368002B3B
:10079000FCD0BFF35F8F5B4B5B499A68030010335B
:1007A0009F00D5598D4239D0A5424AD0574EAA1B39
:1007B0002F2A33D801229246824091464846544A15
:1007C0001268104001904846524A1060BFF35F8F94
:1007D000EFF305829346002A35D0934201D001F011
:1007E0004BFA2A0053469A439068844208D175E038
:1007F0004B005B189B00F3189868A04234D01A0095
:10080000062151560029F3DA844253D0019B002B74
:1008100026D04A46404B1A603D4B1A60394B9B68C4
:10082000DD51BFF35F8FBFF35F8F0022344B1A603F
:1008300088F3108803B0F0BCBB46B246A946A04678
:10084000F0BD0D00EAE72A0053469A4390688442BF
:10085000D6D1062010561300002809DA0D0031E029
:100860004A462C4B1A60D9E706201856002822DB8E
:1008700042001118890074188A46A1689960E179CC
:10088000D971062161569971002925DBA488F11AD6
:100890006405241554440919E0240905490D24026E
:1008A0002143998013181D4A9B001178F318997100
:1008B0001070ABE713005946002914D1FF31917134
:1008C0001749918015490A789A71164A9B1B5B411A
:1008D0005A43120D0A7099E71349E2E706201056B1
:1008E00013000028C4DA114A1149D21A083A5002FA
:1008F000400D014399800F4952080A43DA8085E789
:10090000240100D000ED00E0CD0100101C03002008
:1009100000E100E080E100E080E200E09E080020CD
:1009200001BDFFFFAAAA000001BD00005603002080
:1009300000F0FFFF00F8FFFF70B5EFF30581012421
:100940000443EFF3108C72B6214A1368002BFCD0DD
:10095000BFF35F8F1F4B05001F4AED1A6D416A43BD
:10096000120D1E4D8900AE6852B27658A6421CD0B8
:100970000621595691421CD012215956914222D03B
:100980001E215956914220D02A21595603249142C2
:1009900010D0134B19781A708171BFF35F8F00224A
:1009A0000B4B1A608CF3108870BDAB680D4C5C501B
:1009B000EFE700246100091989005B18FF21997194
:1009C00009499980E5E70124F4E70224F2E7C046EB
:1009D000240100D01C030020AAAA000000ED00E0C2
:1009E0009E080020CD01001001BDFFFF054B064A07
:1009F0001360064A136053609360D36013615361C0
:100A0000936170478080808000E400E004E400E0AF
:100A1000024B9C46614489000160704740000034ED
:100A200010B50400FFF756FE01002000FFF7F0FFAD
:100A3000FF232371BFF35F8F10BDC04610B50400C4
:100A4000FFF748FE01002000FFF7E2FFFF23A3802D
:100A5000BFF35F8F10BDC04683680B4810B5844656
:100A6000614462441201090159189B185C684A6884
:100A70000120944201D802D00020C0B210BD1A68F3
:100A80000B689A42F9D8F7E7FFFFFF0F0A4B196886
:100A9000EFF3108072B60A68002AFCD0BFF35F8FB4
:100AA0001B68BFF35F8F00221A6080F3108840BF7D
:100AB000002000217047C04688080020F8B557463E
:100AC00045464E46DE46E0B598460CAB1C780DAB6D
:100AD0001B78070091469A460568002C5ED1AC7BD6
:100AE000002C3BD0660029683619033E89194B78E3
:100AF000AB73002B00D1EB7300238B704B700B702A
:100B00002D4BE218BB6812019B184A461A604246F8
:100B10005A600A9A9A600B9ADA6000238B704B70C5
:100B20000B706B7B9B46002B2BD022005946A8688C
:100B30006B6898472A68002816D05B4658465B00C9
:100B40005B449619033BB070D118D35C002B00D0E6
:100B500073705B460C706B735C4513D0F0BCBB4686
:100B6000B246A946A046F8BD5B465B005B44033B2A
:100B7000D3189C709119925D002A00D05A705B4680
:100B80000B706C734A464346387D00F0A9FB051E86
:100B90000AD10E9B002BE1D01D70DFE766002968AB
:100BA0003619033E8919ABE75346002BF1D12100DA
:100BB000386800F0BFFDECE7FFFFFF0FF0B5DE4641
:100BC00057464E4645460023E0B58BB00893674B29
:100BD0008200D45800239B46099000F021FB0200BC
:100BE0000B006068EFF3108A72B656460168002960
:100BF000FCD0B246BFF35F8F21684F7B8C46002F3D
:100C00002ED0A5685A49A946791809018944494650
:100C10000868496805000E00AD1A9E41002E5FDD90
:100C200002000B00099800F05BFB002300229946AC
:100C3000002306920793002398466368BFF35F8FF3
:100C40005A461A608AF310884346002B12D10028B6
:100C5000C3D10BB0F0BCBB46B246A946A046F0BD1E
:100C600000230022994600230692079300230020C8
:100C70009846E2E7089B494618023843C047626835
:100C800005000E00EFF3108A72B61368002BFCD03B
:100C9000BFF35F8F002E40DB2B00334302D023696C
:100CA000002B55D12368D97B002905D01A6848004C
:100CB00041185218033A57709A7B002A00D19F734B
:100CC000DF73E268013FD35D0133D3555B46236197
:100CD0006368BFF35F8F5A461A608AF310887CE717
:100CE000002E01D1002D9BD10021604600F0A0FC18
:100CF0004B461A685B68069207934B469B6898467A
:100D00004B46DB689946E368DB19013B1B78089387
:100D10001B020343236100208FE72369002BC1D00E
:100D2000069A079B8021521BB34109068B4202D3CE
:100D30000122104B52420021049101310391494696
:100D400001914146200002970091FFF7B7FEBDE7F1
:100D500000F066FA2A00330012184B418021090680
:100D60008B42E8D30122034B5242E4E76C08002097
:100D7000FFFFFF0FFFFFFF7F10B5144C6368002BD0
:100D800004D00A211248FFF743FE10BD2300114A88
:100D90001021206800F062FB032000F035FA0320E8
:100DA00000F00CFB03200C4900F054FAFFF792FC12
:100DB0000A4B9C4603232375D0231B061B68604403
:100DC0006375074B80006060DC60DAE76403002035
:100DD00088080020590A0010BD0B001040000034A4
:100DE0006C080020F0B557464E464546DE46E0B555
:100DF00085B0019310AB1B780600039300239A463D
:100E0000984600927268EFF3108B72B61368002B4D
:100E1000FCD0BFF35F8F3568AC7B002C00D16FE056
:100E200067002B683F19033FDB195A78AA73002A21
:100E300000D1EA734B4AA118B26809015218009810
:100E40000199106051600E9991600F99D1604246EE
:100E50009A705A701A706B7B9946002B00D170E023
:100E600022004946A8686B6898472A6800285BD02A
:100E70004B4648465B004B44D719033BB870D1182A
:100E8000D35C002B00D07B704B460C706B734C45D1
:100E900058D0F3681B19013B18787368BFF35F8F54
:100EA00042461A608BF310885346002B08D100028B
:100EB000204305B0F0BCBB46B246A946A046F0BDF3
:100EC000039B002B4BD00E9B00200F9998470300EB
:100ED00004000D000B4342D000291ADA009A019B4E
:100EE000121BAB410092019380221206934204D35D
:100EF00001231D4C5B4200930194039B9A4681E7BA
:100F00007368BFF35F8F1C608BF310880120404231
:100F1000CFE700F085F9802224184D411206009495
:100F200001959542E9D3E3E74B465B004B44033B15
:100F3000D3189C70D119D25D002A00D05A704B464C
:100F40000B706C73307D009A019B00F0C9F98246EA
:100F500000289ED02100306800F0ECFB99E70020CB
:100F6000A7E7C046FFFFFF0FFFFFFF7FF8B50B00AD
:100F700004004168EFF3108572B60A68002AFCD0BD
:100F8000BFF35F8F2068D9B2427B8A4209D0FF2627
:100F90001E4002687700BE199219033A9278002A1F
:100FA00012D0FF26E2681E409219013A1B0A1278FD
:100FB000DBB29A420DD000206368BFF35F8F00223E
:100FC0001A6085F31088F8BD21699942F3D1226136
:100FD000F1E700F0AFFBEFE7F0B504000D000626E7
:100FE0007642F717C64636196F4100B584B08F4276
:100FF00014D811D000F014F932003B00121A8B41C2
:10100000002B15DC002B3ED02000290000F012F947
:1010100004B080BCB846F0BD8642EBD9002600275C
:1010200000F0FEF832003B00121A8B41002BE9DD84
:10103000002302930193154B3200009314483B00A8
:10104000FFF7D0FE0028DFDB00239846BC46114A9C
:10105000114F7B6A9C4504D8B96AB142D4D29C45F1
:10106000D2D11168EFF3108072B60B68002BFCD060
:10107000BFF35F8F1368BFF35F8F4146196080F342
:10108000108820BFE5E7002ABED0D1E78D0A001006
:1010900064030020880800200040054070B5060069
:1010A00000F0BEF8FA2204000D00002330000021F9
:1010B000920000F0C9FE8023001969411B06994285
:1010C00002D3012002494042FFF786FF70BDC046AF
:1010D000FFFFFF7F70B5EFF3058305000C0084B0C0
:1010E000002B0AD0164A0020536A9C4203D8926A09
:1010F0000130AA421FD304B070BD124E0293019377
:10110000114B0200009330000B00FFF76BFE011E35
:10111000E8DD20BF3000FFF729FF094B00205A6AA5
:101120009442E8D89B6A0130AB42E4D2A41A631E11
:101130009C41E0B2DFE7E31A5A1E9341D8B2DAE7E6
:1011400000400540640300208D0A0010F0B5EFF365
:101150000582D6464F4646461000C0B51038EFF31C
:10116000108872B6214C2368002BFCD0BFF35F8F30
:101170000123190081401E4D1F006963AA461D4DC1
:1011800029601D4D2E78AC463500C5402F402B42BE
:1011900015D053465F6A194B8500EB589F4218D310
:1011A0006246174B8E43EB581670BFF35F8F0022D9
:1011B000226088F31088002B06D0984704E0BFF324
:1011C0005F8F276088F31088E0BCBA46B146A84616
:1011D000F0BD0C4B92009C46624413681360BFF351
:1011E0005F8F0023236088F31088EDE7280100D08B
:1011F000004005403C7005409F0800208C080020FE
:10120000F8060020D03F054010B5034B0100180040
:10121000024AFFF72FFA10BD9D080020A0230010FE
:10122000034B596A0A00986A596A8A42FAD1704790
:1012300000400540064A536A9942FCD807D1044B46
:1012400002E05A6A914202D19A6A8242F9D3704707
:101250000040054070B504000D00EFF3108672B633
:101260001A4A1368002BFCD0BFF35F8F002D1BD0F0
:101270002000FFF74DFA164981420AD02000FFF7FF
:101280004FFA01212000FFF731FA0123A340114A50
:101290001360114BA400E550BFF35F8F00220B4B8E
:1012A0001A6086F3108870BD0121A1400A4BA2008C
:1012B000D5500A4B20001A788A4305491A70FFF767
:1012C00059FA00212000FFF711FAE5E7280100D0C4
:1012D0004D11001038600540F80600209F080020DE
:1012E000F0B54F46D6464646C0B507002E4C616A5B
:1012F0000D00A66A616AA942FAD18B4208D805D0CE
:101300000120E0BCBA46B146A846F0BDB242F7D9CA
:10131000EFF3108A72B6254801680029FCD0BFF3AC
:101320005F8F0125BD4022491F4C884609788946B8
:101330002943C9B28C46414660460870391D890070
:1013400065630A511B49B8004350216A00202942B5
:1013500019D0616A0800A66A616A8142FAD18B429B
:1013600019D801D1B24216D8CC450BD00E4B1F2252
:101370001D625D6301233A4093400F4A1360434668
:101380004A461A700120BFF35F8F0022074B1A6094
:101390008AF31088B5E70020BFF35F8F0022034B6C
:1013A0001A608AF31088ACE700400540280100D09D
:1013B0009F0800208C08002080E200E0EFF3108CF2
:1013C00072B60A490B68002BFCD0BFF35F8F012374
:1013D0008340074A0748136202789A430270BFF3BA
:1013E0005F8F00230B608CF310887047280100D0BA
:1013F000004005409F08002070B505000E00140055
:10140000002923D0002A12D080686B689847296889
:1014100000280ED063001B197200033B9219CB18F1
:10142000033A9E7088188A5C002A11D1047030003B
:1014300070BD73009B196200033B1219CB18033A6D
:101440009C7088188A5C002A05D106702000EFE79E
:101450005A700470EBE75A700670F7E730B5836096
:101460000023CCB243730133047342608373C473AB
:101470000D000068012C06D9421C0133DBB2137049
:1014800003329C42F9D1FF2129404B005B18C01860
:1014900000230338437030BD70B505000C1E07D023
:1014A000630001681B19033BCB185A78002A01D14D
:1014B000200070BD500080180338091800204E78B5
:1014C0004870210058702800FFF796FF3100040093
:1014D0002800FFF7E1FF0600002C26D00028E7D007
:1014E00021003200A8686B689847296800280ED050
:1014F00073009B196200033B1219CB18033A9C70CE
:1015000088188A5C002A00D05A700670D0E7630001
:101510001B197200033B9219CB18033A9E7088186E
:101520008A5C002A00D05A7004703400C0E7C046BC
:10153000F0B557464546DE464E46E0B50D006F0015
:1015400001687F19033F0400C85D83B00192CA1986
:10155000002850D043001B18033BCB185E78B446DC
:10156000002E1AD1019E002E42D0E67B002E04D020
:1015700073009B19CB18033B5D70A37B002B00D13C
:10158000A573E57300282FD10023537003B0F0BC7E
:10159000BB46B246A946A046F0BD72006244033A7B
:1015A0008A18517888460021517089465970320056
:1015B00001002000FFF720FF43468246002B07D0A2
:1015C0005B0021684344033BCB185A78002A16D1AC
:1015D000424651462000FFF70FFF2168019BCA19C0
:1015E000002BC2D10028CFD043001B18033BCB18DF
:1015F00000219970C8E7019B002BB6D1C4E75000C9
:10160000801803380918487883464846487058704F
:1016100041462000FFF7F0FE594680462000FFF7C4
:101620003BFF414602002000FFF7E6FE8046CFE781
:10163000F0B557464546DE464E46E0B583B00191CB
:10164000457B04006F0000687F19033FC15DC2192C
:10165000002952D04B005B18033BC3185E78B44698
:10166000002E1CD1019E002E44D0E67B002E04D01B
:1016700073009B19C318033B5D70A37B002B00D143
:10168000A573E573002931D10023280053706173DD
:1016900003B0F0BCBB46B246A946A046F0BD7200FE
:1016A0006244033A82185078804600205070814688
:1016B000587032002000FFF79FFE43468246002B01
:1016C00007D05B0021684344033BCB185A78002ABB
:1016D00017D1424651462000FFF78EFE019B0100C4
:1016E0002068C219002BC0D10029CDD04B005B1857
:1016F000033BC31800209870C6E7019B002BB4D1B0
:10170000C2E75000801803380918487883464846D5
:101710004870587041462000FFF76EFE59468046DB
:101720002000FFF7B9FE414602002000FFF764FEEB
:101730008046CEE770B5050000292CD0437B8B4254
:101740002ED04C0000686418033C0419A278002ACB
:1017500021D053009B18033BC25CC6188A4202D1B9
:101760001BE0002A08D053009B18033BC3185A788B
:101770008A42F6D162785A70002301222800A370B1
:101780006370FFF7D5FE697B02002800FFF734FE87
:101790006873012000E0002070BD63783370EBE7D0
:1017A00001221900FFF7C4FEF2E7C04610B50C2075
:1017B00082B000F0AFF9FEF755FF002810D0864B3D
:1017C00086488649864A186059609860D9601861D1
:1017D00059619861D961186259625A6202B010BDAC
:1017E000804CA06700F09EF901227F4B1A60636C69
:1017F000012BFCD103227D4B1A607A4A936B012B9B
:10180000FCD1013301217A4A7A480093043300F075
:101810002DF90523784A00930121784800F026F934
:10182000774B5A68FF2A02D8802252005A608022E1
:101830006E4B694C12011A602169002905D060695C
:1018400000F07AFA01300138FDD1E0226C4B6D488E
:1018500019680A40026002221968514001320A40A8
:10186000042102609A681142FCD08021664A090175
:101870001160802252005A60644B2361644B5968A6
:10188000FF2900D85A6003220121574B1A60604A91
:1018900093681942FCD0E023106803405D48036060
:1018A000126803234A4002211340594A0360936897
:1018B0001942FCD08021584B090119608021574BF7
:1018C000490051606361564B5A68FF2A00D859603D
:1018D0008022544B12011A60E169002905D0606929
:1018E00000F02AFA01300138FDD1E0234C4A11689A
:1018F0000B404D490B6080214C4B09011960802140
:10190000364B49005160E361494B5A68FF2A00D8C1
:1019100059608022474B12011A60216A002905D0C4
:10192000606900F009FA01300138FDD1E023404A36
:1019300011680B4040490B608021404B0901196040
:1019400080235B0053608022244BD20223623C4BF5
:101950005968914200D25A6080223A4B12011A60B3
:10196000616A002905D0606900F0E6F901300138AC
:10197000FDD1E023324A11680B4033490B608021CE
:10198000324B090119608023DB025360144B636200
:101990002F4B5A68FF2A02D8802252005A608022B8
:1019A0002C4B12011A60A169002905D0606900F072
:1019B000C3F901300138FDD1E023254A11680B40FD
:1019C00025490B608021254B0901196080235B00AC
:1019D0005360124BA36101E7D0030020006CDC02CE
:1019E0001BB70000008000403CB0004030B0004019
:1019F000002F685900800240008C864700C00240DA
:101A0000308000403090004030A00040001BB70004
:101A10003C8000403C9000403CA00040405973078F
:101A20005480004054B000405490004054A0004006
:101A30006080004060B000406090004060A00040C6
:101A40006C8000406CB000406C9000406CA0004086
:101A50004880004048B000404890004048A0004006
:101A6000014B8000C0587047D0030020F8B5040037
:101A70000C2017001D000E0000F05EF943011B1A38
:101A80009901C91AC90009188901380000F054F9F0
:101A9000069B29041B0319432368002B20DB194BE9
:101AA000194DE3185A4253418022520194461B03B8
:101AB000164A63441360164A13601F00AA689743CE
:101AC000FBD1C023221D9B01134321222660A0606D
:101AD0001A602268002AFCDA0822E1601A60F8BD68
:101AE0003F2322681340B342D9D1A3681B051B0DC5
:101AF0008342D4D1EE22E368D20213408B42CED18E
:101B0000EDE7C0460040FDBF00C0004000E00040DF
:101B100000F000408023024A9B000343D3627047D9
:101B200000800540AA23064A1B0113602F230549A4
:101B3000D360054B19605368002BFCDA7047C04630
:101B40000040024000B0FA00006002402C4B2D4AD9
:101B500070B51A602C4A2D4B2D491A6014008B6801
:101B60009C43FBD12B4D2C4EB54208D2013E761B37
:101B7000B60808CD984723000134B342F9D1FFF7E6
:101B800015FE264A214B1A60214A9368DB43DB018C
:101B9000DD09002BF9D14022214B224C224E9A67BD
:101BA0005A671A67DA66B44208D223682000002B0D
:101BB00020D00834FEF742FFB442F6D31B4C1C4E33
:101BC000C022B168200000F0AFF9B460FEF774FDE8
:101BD000FEF70CFFFFF7D0F8164C174EB44208D2B0
:101BE000013E361BB60808CC98472B0001359E42B3
:101BF000F9D170BD0834FEF713FFB442D5D3DDE749
:101C000000E00040BFCDFBFEFE7F3C0000F0004046
:101C100000C00040B8030020C8030020FFFFFF0100
:101C200000F00140B0030020B803002000000020B5
:101C300000ED00E0C8030020D003002000BEFDE757
:101C400010B5FFF7FBFFC0460FB400B5084883B0DE
:101C500000F01AFA049B002B07D005A91800019187
:101C600000F018F8034800F00FFA0120FFF7E6FF34
:101C7000C4230010D423001010B50148FFF7E4FF7F
:101C8000D823001010B5002800D110BD00F0B0F925
:101C9000FBE7C04610B5094A0300146884B0002C65
:101CA00008D0012200910648524203A9A047012012
:101CB00004B010BD00F0E8F90020F9E7500800205A
:101CC000851C001001480421014B18479003002097
:101CD000F51C0010142310B50100188804331B886C
:101CE000984710BD162310B50100188802331B88D1
:101CF000984710BDF8B54746CE4680B50F1E19D09F
:101D000014239946043304000025012698464B46C7
:101D10001888434621681B88984701C4431E984190
:101D2000013540420640AF42F1D13000C0BCB94657
:101D3000B046F8BD0126F8E7114A936F9B0813D20D
:101D400010665166002905D0FFE7FFE7FFE7516FF6
:101D5000106F704704B5002801D00020C04300F088
:101D6000E3FA002104BDC046F0B5146E556E576FFE
:101D7000166FFFF7E5FF1466556657671667F0BDE7
:101D8000000000D0132370B51D78012D15D010DD93
:101D90001D48FFF7A7FF1D4C01008022200000F026
:101DA000C3F8022D2DD01A48FFF794FF194B186085
:101DB00070BD194B154CA364F5E7174B134C23600A
:101DC0006360A360E36023616361A361E3612362F5
:101DD0006362A362E36223636363A363E3632364D5
:101DE0006364A364E36423656365A365E3652366B5
:101DF0006366A366E36623676367A367E367A36419
:101E0000D1E7054BA364CEE753440000F80400205B
:101E10004C330000840800201D1E001007B56046EA
:101E200001880A0A0230DF2AFAD1C9B2820804D333
:101E3000028840880004104300E00068014A5050C6
:101E4000039007BDF804002051434343C9188C4652
:101E5000110C83B24B4310B4040C614392B280B2B4
:101E6000504362431C041B0C001910BC594113045D
:101E7000120CC0185141614470470000132310B583
:101E800012481C78FFF72EFF0100012C0AD003DD59
:101E900080220F4800F048F80E48FFF71BFF0E4B5A
:101EA000186010BD0A4C5422200000F03DF80B4B86
:101EB0006365A365E36523666366A366E3662367DC
:101EC0006367A367E3672362E361E5E753460000C6
:101ED000F80500204C33000084080020E11E0010AB
:101EE00007B5604601880A0A0230DF2AFAD1C9B272
:101EF000820804D3028840880004104300E0006890
:101F0000014A5050039007BDF80500200148042104
:101F1000014B1847A0030020F51C0010014B1B6863
:101F200018470000A0030020014B5B681847000021
:101F3000A0030020F0B546464F46D646C0B5437DC7
:101F400080460E001700002B4BD0002A32DD274BB5
:101F500001259A464B1E00240020994607E0335D78
:101F60000A2B2CD02B0001340135BB4213DA002C94
:101F7000F5D133780A2BF5D143461B7D002BF1D1E7
:101F80004346504602211B68984728002B00013425
:101F90000135BB42EBDB874204DD4346391A1B683F
:101FA00030189847F619013E33780D3B5A42534199
:101FB00042461375E0BCBA46B146A846F0BD4B4652
:101FC0001B5D0D2BCED0A042DADA4346211A1B68E6
:101FD000301898474346504602211B68984728000E
:101FE000D4E70368110030009847E3E7502400105D
:101FF000F0B5CE46474680B583B06B460600DD1D82
:102000002870FFF70DF900231A4A12184B4180215E
:1020100009068B4202D30122174B5242174908008E
:10202000884600F091F9164B81461C68002C14D0AC
:10203000144F02E02469002C0FD02368002BF9D044
:102040003B68002B01D0A342F4D1200001222900DB
:10205000FFF770FF2469002CEFD14B46002B05D110
:10206000300003B0C0BCB946B046F0BD404600F0F9
:1020700053F9F5E740420F00FFFFFF7FB003002058
:10208000480800204C080020F0B5DE4657464E4672
:102090004546E0B585B0070000F006F90600FFF7F9
:1020A000BFF800232B4A12184B41802109068B42AE
:1020B00002D30122284B5242284908008B4600F0E7
:1020C00043F9274B01901C689A46002C3BD0254BC6
:1020D000984602ABDD1D0A23994602E02469002CD4
:1020E00017D02368002BF9D043461B68002B01D082
:1020F000A342F3D1200032003900FFF71BFF4B460B
:102100002000012229002B70FFF714FF2469002C06
:10211000E7D1019B002B18D153461C68002C06D038
:102120006368002B0BD098472469002CF8D130004D
:1021300005B0F0BCBB46B246A946A046F0BD246936
:10214000002CEDD1F3E70028F1D0584600F0E4F878
:10215000E2E7C04640420F00FFFFFF7FB0030020D0
:10216000480800204C08002010B5024800F004F890
:1021700010BDC0467C08002030B5002589B00400A1
:102180000922002101A80095FFF7C8FE09220021BD
:1021900005A80495FFF7C2FE4B236A4668461370F4
:1021A00004A90D2200F0B0F815210822200069448E
:1021B000FFF7BAFE09B030BDF0B54F468146364B49
:1021C000D6464B445A425341802292029446464698
:1021D0005B421B0C314A1B046344C0B51360304A98
:1021E0000D003049136018008A689043FBD1062027
:1021F000FFF736FC80468020400002218246EF0D2A
:102200006E02AB0DAA0203E0C44509D851453FD088
:102210000C0094461800023192197B410028F3D03B
:10222000802627023F1B7600B246013E002E31D0A9
:1022300039004046FFF780FD3F1B8542F4D25146EE
:10224000614336024B461C611B684A465E40FF23D1
:102250001B021E4080235B0113431E60106807228F
:102260005040C83202401A604B468022032092013F
:102270002433134318604B4604331A430223404669
:102280001360FFF759FDE0BCBA46B146A846F0BD61
:102290000C00C5E72100D5E70040FCBF00E000408E
:1022A00000F0004000C0004010B583070AD00300D2
:1022B000032102E001330B4205D01A78002AF9D13C
:1022C000181A10BD030019680C4A0D4C8A188A436D
:1022D00022420FD15968094A04338A188A4322429C
:1022E00008D15968054A04338A188A432242F1D03A
:1022F00000E001331A78002AFBD1E1E7FFFEFEFE81
:1023000080808080F8B5C04601B40248844601BC94
:10231000604700BFF901002001B40248844601BCB7
:10232000604700BF5D01002001B40248844601BC43
:10233000604700BF0503002001B40248844601BC89
:10234000604700BFB902002001B40248844601BCC6
:08235000604700BFC10000203E
:102358000380020000C13000640312818500780008
:10236800392C0034020000003E28000002020A1442
:10237800088227000F312B0C0E084EF13707100387
:102388000E090000000E1403110731C148080F0C94
:1023980031360F0009000600486172647761726582
:1023A80020616C61726D20256420616C72656164C6
:1023B8007920636C61696D65640000000A2A2A2A25
:1023C8002050414E4943202A2A2A0A000A000000C8
:1023D80048617264206173736572740052656C653C
:1023E80061736500626F6F74325F773235713038B0
:1023F80030000000312E352E300000007069636F08
:1024080000000000696C69393334315F636F6E74A2
:10241800726F6C6C657200004E6F7620313320321B
:102428003032330006005250D3F07542E4230010D6
:1024380006005250E182887FEC23001006005250BB
:0C244800BBFF3CB6042400100D0A00008D
:102454002C2400103824001088020010442400109A
:0C24640094020010A0020010AC02001056
:10247000F0B5C646150000B504001E000268EFF373
:10248000108172B61368002BFCD0BFF35F8F04235A
:10249000E356002B2DDB2268BFF35F8F0020106016
:1024A00081F31088D0221206127852B290469A42D6
:1024B00003D1002080BCB846F0BD00270BE02368A4
:1024C000BFF35F8F1F6081F310882800310000F098
:1024D000F3F80028EDD12268EFF3108172B613688B
:1024E000002BFCD0BFF35F8F23797F2BE7D94346C6
:1024F00002E0D0231B061B6823712368BFF35F8FA4
:1025000000221A6081F310880120D3E70268EFF3FC
:10251000108172B61368002BFCD0BFF35F8FFF23CE
:1025200003710368BFF35F8F00221A6081F3108884
:1025300040BF704710B5084C2378002B0AD1802388
:10254000064807495B051A68C25004338B42FAD12A
:102550000123237010BDC0469C080020080700100E
:102560000001001010B5014B984710BD090700206D
:10257000034B1A68C0239B009343024A13607047C1
:102580000C8001400C900140054B1A6880239B0091
:102590005340C02292001340024A13607047C04665
:1025A0000C8001400C9001401423F0B5D6464F46F4
:1025B00046469A46814618880433C0B598460E00B0
:1025C0001B8826491400984753460700188843463D
:1025D00023491B88984753460500188843462149DC
:1025E0001B8898478046FFF7A5FFB847A847FFF725
:1025F000CBFF221E20D0C02108270220490511E070
:10260000002C14D0131B0D2B20D9002D0AD0230031
:10261000002A05D00B6E013A3370130001362343B4
:10262000002B09D03D008B6A1D401842E8D1002DD7
:10263000EDD123001343F5D1FFF79AFFC047FFF711
:1026400091FFE0BCBA46B146A846F0BD4B461B78A8
:10265000013C0B6601239C46E144E8E74946000043
:10266000455800004643000030B50400101E0AD053
:102670000A000D180221E3681942FCD013780132D8
:10268000A3609542F7D1E3685B0704D50421A368F2
:10269000E3681942FBD11021E3681942FCD1E368D9
:1026A0005B0704D50421A368E3681942FBD1012329
:1026B000236230BD7047C04601B40248844601BC65
:1026C000604700BFD510001010000000000000009F
:1026D00000000100000000000000000000000200F7
:1026E00000000000000000000000030000000000E7
:1026F000000000000000FF000000000001B5486875
:1027000001318E460047704609380149884701BDAE
:10271000390900107C03002000000000F8030020AD
:102720000808002000000000000000001808002039
:102730000000000000000000100000000000000089
:10274000503300004C33000054330000523300007B
:102750004D5300004D43000053340000433400004B
:1027600000000000000000000D1F0010C51C00103C
:10277000851D00107D1E0010E5020010692100106B
:04000005100001E9FD
:00000001FF
